:100000000C94DF000C9407010C9407010C94070179
:100010000C9407010C9407010C9407010C94070140
:100020000C9407010C9407010C9407010C94070130
:100030000C9407010C9407010C9407010C94070120
:100040000C94A2040C9407010C9412050C94EC047B
:100050000C9407010C9407010C9407010C94070100
:100060000C9407010C94070100407A10F35A00A089
:10007000724E18090010A5D4E80000E87648170071
:1000800000E40B54020000CA9A3B000000E1F505B1
:10009000000080969800000040420F000000A086FB
:1000A00001000000102700000000E803000000002D
:1000B0006400000000000A000000000001000000D1
:1000C00000002C76D888DC674F0823DFC1DFAE59EB
:1000D000E1B1B796E5E3E453C63AE651997696E87E
:1000E000E6C28426EB898C9B62ED407C6FFCEFBC02
:1000F0009C9F40F2BAA56FA5F490055A2AF75C932D
:100100006B6CF9676DC11BFCE0E40D47FEF520E662
:10011000B500D0ED902E0300943577050080841E45
:10012000080000204E0A000000C80C333333330FA0
:10013000986E12831141EF8D2114893BE65516CF3D
:10014000FEE6DB18D1844B381BF77C1D901DA4BB49
:10015000E424203284725E228100C9F124ECA1E5FE
:100160003D2700000000240027002A0000000000B6
:1001700023002600290000000000250028002B0095
:10018000040404040404040402020202020203033D
:100190000303030301020408102040800102040845
:1001A00010200102040810200000000800020100D5
:1001B000000304070000000000000000890511246E
:1001C0001FBECFEFD8E0DEBFCDBF23E0ACE1B1E092
:1001D00001C01D92AC3BB207E1F711E0A0E0B1E035
:1001E000E0E2FFE102C005900D92AC31B107D9F712
:1001F00010E0CFEDD0E004C02197FE010E94960DE3
:10020000CE3DD107C9F70E94C0050C948E0F0C9407
:1002100000008F929F92AF92BF92CF92DF92EF92A7
:10022000FF921F93CF93DF93C12CD12C7601D0E0A6
:10023000C0E084E1882E912CA12CB12C1CE06091AF
:10024000190270911A026C1B7D0B072E000C880B93
:10025000990B6C5E7F4F8F4F9F4FA50194010E94B9
:10026000410D169FF001179FF00D1124E75DFE4F21
:100270002081318142815381C701B6010E944A0C1D
:100280006B017C012196C330D105C9F620E030E036
:1002900040E450E40E94B60CDF91CF911F91FF9093
:1002A000EF90DF90CF90BF90AF909F908F90089588
:1002B00090E0FC01E855FE4F2491FC01EC56FE4F06
:1002C0003491FC01E058FE4FE491EE23C9F0222363
:1002D00039F0233001F1A8F4213019F1223029F14D
:1002E000F0E0EE0FFF1FEA58FE4FA591B4918FB7D3
:1002F000F894EC91611126C030953E233C938FBF5A
:1003000008952730A9F02830C9F0243049F78091AA
:1003100080008F7D03C0809180008F778093800064
:10032000DFCF84B58F7784BDDBCF84B58F7DFBCFE6
:100330008091B0008F778093B000D2CF8091B000D1
:100340008F7DF9CF3E2BDACF2FB7F894609125013E
:100350007091260180912701909128012FBF089567
:10036000AF92BF92CF92DF92EF92FF920F931F93C3
:10037000CF93DF936C017B018B01040F151FEB0101
:100380005E01AE18BF08C017D10759F06991D601B8
:10039000ED91FC910190F081E02DC6010995892B2A
:1003A00079F7C501DF91CF911F910F91FF90EF90E9
:1003B000DF90CF90BF90AF900895FC01538D448D96
:1003C000252F30E0842F90E0821B930B541710F000
:1003D000CF96089501970895FC01918D828D98170D
:1003E00061F0A28DAE0FBF2FB11D5D968C91928DE5
:1003F0009F5F9F73928F90E008958FEF9FEF089516
:10040000FC01918D828D981731F0828DE80FF11DDE
:10041000858D90E008958FEF9FEF0895FC01918DF9
:10042000228D892F90E0805C9F4F821B91098F73F2
:10043000992708958BE192E00E940E0221E0892B1A
:1004400009F420E0822F089580E090E0892B29F0C4
:100450000E941A0281110C9400000895FC01A48DE1
:10046000A80FB92FB11DA35ABF4F2C91848D90E0D6
:1004700001968F739927848FA689B7892C93A089B9
:10048000B1898C91837080648C93938D848D981343
:1004900006C00288F389E02D80818F7D80830895D6
:1004A000EF92FF920F931F93CF93DF93EC0181E0C4
:1004B000888F9B8D8C8D98131AC0E889F98980816B
:1004C00085FF15C09FB7F894EE89FF896083E8899E
:1004D000F98980818370806480839FBF81E090E090
:1004E000DF91CF911F910F91FF90EF900895F62E1D
:1004F0000B8D10E00F5F1F4F0F731127E02E8C8DB7
:100500008E110CC00FB607FCFACFE889F9898081FB
:1005100085FFF5CFCE010E942E02F1CFEB8DEC0FBF
:10052000FD2FF11DE35AFF4FF0829FB7F8940B8F18
:10053000EA89FB8980818062CFCFCF93DF93EC0182
:10054000888D8823B9F0AA89BB89E889F9898C91BB
:1005500085FD03C0808186FD0DC00FB607FCF7CF77
:100560008C9185FFF2CF808185FFEDCFCE010E9477
:100570002E02E9CFDF91CF9108950F931F93CF9370
:10058000DF93EC0188819981009759F02A813B81A2
:100590002617370730F081E0DF91CF911F910F913F
:1005A00008958B016F5F7F4F0E94C10E009759F035
:1005B000998388831B830A832C813D81232B59F7E0
:1005C000FC011082E8CF80E0E7CFEF92FF920F931B
:1005D0001F93CF93DF936115710541F480E0DF91A4
:1005E000CF911F910F91FF90EF9008954115510504
:1005F000B1F07B01EC010C811D81040F151FB801C6
:100600000E94BD02882351F3288139818C819D810C
:10061000B701820F931F0E94870F1D830C8381E017
:10062000DECFCF93DF93EC0188819981009711F0A1
:100630000E94380E198218821D821C821B821A8227
:10064000DF91CF910895CF93DF93EC01FB010190EF
:100650000020E9F73197AF01461B570B0E94E502D6
:10066000811103C0CE010E941103CE01DF91CF9111
:100670000895EF92FF920F931F93CF93DF93EC01B6
:100680007B018A01BA010E94BD0281110BC0CE011B
:100690000E941103CE01DF91CF911F910F91FF9026
:1006A000EF9008951D830C83B701888199810E9482
:1006B000870FF0CFEF92FF920F931F93CF93DF93AB
:1006C000CDB7DEB7E3970FB6F894DEBF0FBECDBF50
:1006D0007C01CB01BA01F7011182108213821282D0
:1006E000158214828E010F5F1F4F22E044E00E94AA
:1006F00067080097C9F0FC0101900020E9F73197E5
:10070000AF01481B590BBC01C7010E943903E39696
:100710000FB6F894DEBF0FBECDBFDF91CF911F9112
:100720000F91FF90EF900895C7010E941103EFCF42
:10073000FC0180819181009711F00C94380E08958E
:100740003F924F925F926F927F928F929F92AF9261
:10075000BF92CF92DF92EF92FF920F931F93CF93AE
:10076000DF93CDB7DEB7E9970FB6F894DEBF0FBEC3
:10077000CDBF0E94A4014B015C010E9409012B0125
:100780003C01C12CD12C760110E000E08CE0382E29
:100790006091190270911A02601B710B072E000CF8
:1007A000880B990B6C5E7F4F8F4F9F4F24E130E099
:1007B00040E050E00E94410D369EF001379EF00D62
:1007C0001124E75DFE4F2481358146815781C701A1
:1007D000B6010E944A0C6B017C010F5F1F4F0A306B
:1007E0001105B1F620E030E040E450E40E94B60C80
:1007F000AB01BC01CE018E960E945A03B301A20147
:10080000CE0188960E945A031BA21AA21DA21CA206
:100810001FA21EA22AE08E010F5F1F4FA801C50173
:10082000B4010E948508F80101900020E9F7319792
:10083000AF01401B510BB801CE0182960E943903D3
:100840001A8219821C821B821E821D826AA17BA1D0
:100850006115710529F04EA15FA1C8010E943903FD
:1008600068E171E0C8010E9423037C014CA55DA5ED
:1008700068A579A50E94E502811103C0C7010E9405
:10088000110368E171E0C7010E9423037C014AA9BA
:100890005BA96EA57FA50E94E502811103C0C70177
:1008A0000E9411036AE171E0C7010E9423031DAA9F
:1008B0001CAA1FAA1EAA19AE18AE7E0124E3E20EDE
:1008C000F11C8E159F0559F0FC0160817181611545
:1008D000710529F044815581C7010E943903C8017F
:1008E0000E949803CE0182960E949803CE018896BA
:1008F0000E949803CE018E960E94980348AD59AD90
:100900006CA97DA98BE192E00E94B001C7010E9411
:10091000980381E0E9960FB6F894DEBF0FBECDBF15
:10092000DF91CF911F910F91FF90EF90DF90CF90CB
:10093000BF90AF909F908F907F906F905F904F90FF
:100940003F9008951F920F920FB60F9211242F938C
:100950003F938F939F93AF93BF9380912501909185
:100960002601A0912701B09128013091240123E0B4
:10097000230F2D3758F50196A11DB11D2093240199
:100980008093250190932601A0932701B09328011D
:100990008091200190912101A0912201B091230129
:1009A0000196A11DB11D8093200190932101A09378
:1009B0002201B0932301BF91AF919F918F913F91FD
:1009C0002F910F900FBE0F901F90189526E8230FC0
:1009D0000296A11DB11DD2CF1F920F920FB60F929A
:1009E00011242F933F934F935F936F937F938F9334
:1009F0009F93AF93BF93EF93FF938BE192E00E949D
:100A00002E02FF91EF91BF91AF919F918F917F91B6
:100A10006F915F914F913F912F910F900FBE0F906B
:100A20001F9018951F920F920FB60F9211242F93BB
:100A30008F939F93EF93FF93E0912B02F0912C0201
:100A40008081E0913102F091320282FD1BC09081E1
:100A5000809134028F5F8F7320913502821741F0AD
:100A6000E0913402F0E0E55EFD4F958F8093340213
:100A7000FF91EF919F918F912F910F900FBE0F904B
:100A80001F9018958081F4CFCF92DF92EF92FF9262
:100A90000F931F93E82FF92F05C001501109210969
:100AA000310961F1908196239417B9F305C0015083
:100AB00011092109310911F1908196239413F7CF7F
:100AC000C12CD12CE12CF12C0AC08FEFC81AD80A06
:100AD000E80AF80A0C151D052E053F0579F08081FE
:100AE0008623841791F36C2D7D2D8E2D9F2D1F91C4
:100AF0000F91FF90EF90DF90CF90089560E070E04D
:100B000080E090E01F910F91FF90EF90DF90CF90E9
:100B10000895EBE1F2E01382128288EE93E0A0E008
:100B2000B0E084839583A683B7838AE091E09183C4
:100B3000808385EC90E09587848784EC90E09787AC
:100B4000868780EC90E0918B808B81EC90E0938B9A
:100B5000828B82EC90E0958B848B86EC90E0978B77
:100B6000868B118E128E138E148E80E091E0E8EB4E
:100B7000F2E0DF019C011D9221503040E1F7089521
:100B8000789484B5826084BD84B5816084BD85B568
:100B9000826085BD85B5816085BD80916E00816074
:100BA00080936E001092810080918100826080931A
:100BB000810080918100816080938100809180001C
:100BC0008160809380008091B10084608093B10047
:100BD0008091B00081608093B00080917A00846041
:100BE00080937A0080917A00826080937A0080916D
:100BF0007A00816080937A0080917A008068809387
:100C00007A001092C100E0912B02F0912C0282E058
:100C10008083E0912702F09128021082E09129025E
:100C2000F0912A0280E1808310923302E0912F023A
:100C3000F091300286E08083E0912D02F0912E0247
:100C4000808180618083E0912D02F0912E0280816D
:100C500088608083E0912D02F0912E02808180686F
:100C60008083E0912D02F0912E0280818F7D808320
:100C7000EBE9F1E02491E7E8F1E08491882399F031
:100C800090E0880F991FFC01EE59FE4FA591B49199
:100C9000FC01EA58FE4F859194918FB7F894EC913E
:100CA000E22BEC938FBFEAE9F1E02491E6E8F1E072
:100CB00084918823C1F090E0880F991FFC01EE59C0
:100CC000FE4FA591B491FC01EA58FE4FC591D49115
:100CD0003FB7F8949C91822F809598239C9398819C
:100CE000892388833FBF10921A021092190284E16F
:100CF00090E02CE0C12CD12CE0E2EE2EE1E4FE2EBF
:100D00004091190250911A02249FF001259FF00D85
:100D10001124E75DFE4FC082D182E282F3824091CE
:100D2000190250911A02249FF001259FF00D112401
:100D3000E75DFE4F1086118612861386019701F734
:100D40000E94A401E8EBF2E020813181232B09F419
:100D50005CC1709623E0E83BF207B0F34FE0E42E6D
:100D6000F12C53E2252E312C64E1C62ED12C70E0FB
:100D7000A72E70E0B72E60E087E00E945801C701FF
:100D80000197F1F761E087E00E945801C1010197E6
:100D9000F1F760E087E00E945801EAE9F1E0649130
:100DA000E6E8F1E08491E82FF0E0EE0FFF1FE45950
:100DB000FE4F8591949100E315E720E030E0462F47
:100DC0000E944405611571058105910529F06F5F49
:100DD0007F4F8F4F9F4F9F7095958795779567951C
:100DE0000E94F50A21E233E94CE05DE30E94540BD6
:100DF0002B013C0120E030E0A9010E94EE0A87FFB0
:100E00001FC110921C0110921D0110921E01109220
:100E10001F010E9409010E9409018091190290910D
:100E20001A028091190290911A022CE0289FF00179
:100E3000299FF00D1124E75DFE4F80911C019091D8
:100E40001D01A0911E01B0911F0180839183A28397
:100E5000B3830091190210911A020E94A4014CE080
:100E6000409FF001419FF00D1124E75DFE4F608728
:100E70007187828793878091190290911A020F9649
:100E8000B6010E942D0D8090190290901A022091B7
:100E9000190230911A026091190270911A02469F4C
:100EA000E001479FD00D1124C75DDE4F429FF00146
:100EB000439FF00D1124E75DFE4F489F8001499F3D
:100EC000100D1124075D1E4FD8012D913D914D91BC
:100ED0005C9160817181828193810E94490C2B0118
:100EE0003C01BCE0B89DF001B99DF00D1124E75D17
:100EF000FE4F6085718582859385F8010085118597
:100F000022853385601B710B820B930B0E94F30AC1
:100F10009B01AC01C301B2010E94B60C20E030E09D
:100F200048EC52E40E94540B6C837D838E839F8334
:100F30008091190290911A020196B6010E942D0D1E
:100F400090931A0280931902C8EBD2E088819981AC
:100F5000892BB9F10E94A4012B013C018C819D8158
:100F6000AE81BF81B301A201481B590B6A0B7B0BF9
:100F700088859985AA85BB85481759076A077B0725
:100F800000F1E881F9818A819B810995882351F0DC
:100F900081E04C855D856E857F85452B462B472BF3
:100FA00009F480E0482F50E070E060E04C875D87F6
:100FB0006E877F87882309F463C04C825D826E82CE
:100FC0007F826096F3E0C83BDF0708F4BFCF0E9442
:100FD000A40108EB12E0D8018D919C91892B09F0B6
:100FE00060C0005F1F4FB3E0083B1B07A0F30E94E7
:100FF000A401A114B10409F4BECE0E941A028823F0
:1010000009F4B9CE0E940000B6CE20EA33E0318365
:10101000208313821282648375838683978382E39D
:1010200090E0A0E0B0E080879187A287B38781E05D
:1010300090E0A0E0B0E084879587A687B7878ECE42
:1010400020E030E048E453E4C301B2010E94280DDF
:1010500018164CF040921C0150921D0160921E0126
:1010600070921F01D6CE80E090E0A8E4B3E48093B4
:101070001C0190931D01A0931E01B0931F01C9CEC6
:10108000198218821B821A821C821D821E821F8274
:10109000188619861A861B861C861D861E861F8644
:1010A00090CF0E94A401F80144805580668077802B
:1010B0006419750986099709408451846284738490
:1010C000641575058605970508F48BCF90CFEF92D0
:1010D0000F931F93CF93DF93E80134E047FD34E192
:1010E000042E000C550B57FF03C051954195510933
:1010F000E32E022F242FAE010E94A708CE01DF911C
:10110000CF911F910F91EF900895BB27FA01A62F61
:101110006217710581059105330B30FB66F0AA2734
:10112000660F771F881F991FAA1FA21710F0A21B16
:1011300063953850A9F7A05DAA3308F0A95DA19383
:1011400036F7B111B1931082CA010C94DE0AA9E0FE
:10115000B0E0EDEAF8E00C94180C6A01F22EB02E23
:10116000102FFBE3AF2EA01608F41BE31F5F012F27
:1011700027E0AE014F5F5F4F0E94060ABC018981E4
:10118000982F9970913009F43FC09BE2E1FC04C0B4
:101190009E2D9170E0FC3AC05E2D5071E82FE870F2
:1011A00083FF46C084E0911101C083E0EF2DE81B6E
:1011B0008F1508F0E0E0D6018E2F20E2552351F183
:1011C000992329F0D6019C93C60101966C019601E2
:1011D0002D5F3F4FE2FE24C08EE4D6018C9391E454
:1011E00011969C93119712968C93D9018E2F90E2B1
:1011F00081111BC0E20FF32FF11D10828EEF9FEFC4
:101200002996ECE00C94340C9DE2C6CF90E2C4CF5A
:101210002D9381508111FCCFCE0ED11CE0E0D0CFB8
:101220008EE6D6018C9391E6DBCF9D938150E0CF83
:10123000482F447082FF3DC084E0911101C083E0DB
:101240008F1510F4EF2DE81BD6018E2F20E25523C9
:1012500009F1992329F0D6019C93C60101966C01EE
:1012600096012D5F3F4FE2FE1BC089E4D6018C93AF
:101270008EE411968C93119786E412968C93D90183
:101280008E2F90E2882309F4B5CF9D938150FACF39
:101290002D9381508111FCCFCE0ED11CE0E0D9CF2F
:1012A00089E6D6018C938EE611968C93119786E68B
:1012B000E4CF9B0177FF02C030E020E0A1E0B0E086
:1012C000911102C0B0E0A0E0F9013196AE0FBF1F4E
:1012D0008B2C912CBB2009F461C05401EFEFAE1AA6
:1012E000BE0AAA0DBB1DFA161B0619F014F04F2DED
:1012F0004A1B511188C0E3FC59C07601A42FB0E20B
:10130000A1114FC0C40ED11C992309F45BC040E069
:10131000D6011196F60190836D01552309F448C05A
:10132000012F060F9A81582F507184FF03C091330B
:1013300009F4015010160CF047C0093008F008E01D
:10134000EEE2FE2E5B01A01AB10885019194819412
:1013500091082F3F320729F4D601FC92F60131960D
:101360006F016217730794F1021713077CF5DB0115
:10137000A21BB30BAA24A394B12CAC0EBD1EAA0DC4
:10138000BB1D11968C9121503109D601119628155B
:101390003905F4F0F60180836D01DBCFB12CA12C6F
:1013A000A0CFF701B1937F01A150AACF9111B0CF87
:1013B000D601942F50E302C05D9391509111FCCF60
:1013C000C40ED11C40E0ACCF01E0BACF80E3DBCF4C
:1013D0006217730731F4963388F4953311F455236B
:1013E00069F0F6018083FD01842F90E2811108C02D
:1013F000A40FB11D1C9290E080E002CF81E3F1CFF9
:1014000091938150F3CF911183CF8ACF283008F088
:1014100027E03327DA01990F311D87FD916000968F
:101420006105710539F432602E5F3D9330E32A95F2
:10143000E1F708959F3F30F080387105610509F0AC
:101440003C5F3C5F3D93913008F08068911DDF93D5
:10145000CF931F930F93FF92EF92192F987F96953A
:10146000E92F96959695E90FFF27EE53FF4F9927A1
:101470003327EE24FF24A701E70105900894079481
:1014800028F4360FE71EF81E491F511D660F771FFF
:10149000881F991F0694A1F70590079428F4E70E7A
:1014A000F81E491F561FC11D770F881F991F661F01
:1014B0000694A1F70590079428F4F80E491F561FCB
:1014C000C71FD11D880F991F661F771F0694A1F7AC
:1014D0000590079420F4490F561FC71FD81F990F76
:1014E000661F771F881F0694A9F7849110951770BF
:1014F00041F0D695C79557954795F794E7941A9577
:10150000C1F7E8E6F0E06894159015913591659182
:10151000959105907FE27395E118F10A430B560B04
:10152000C90BD009C0F7E10CF11E431F561FC91F9C
:10153000D01D7EF4703311F48A95E6CFE894015003
:1015400030F0080F0AF40027021708F4202F239523
:10155000022F7A3328F079E37D932A95E9F710C0BA
:101560007D932A9589F606949795679537951795F3
:101570001794E118F10A430B560BC90BD00998F0E8
:1015800023957E9173957A3308F070E37C93201352
:10159000B8F77E9170617D9330F0839571E37D9310
:1015A00070E32A95E1F71124EF90FF900F911F91BE
:1015B000CF91DF91992787FD90950895DC01FC017B
:1015C000672F71917723E1F7329704C07C916D9377
:1015D00070836291AE17BF07C8F308950E94300B65
:1015E00008F481E00895E89409C097FB3EF49095D3
:1015F0008095709561957F4F8F4F9F4F9923A9F0EC
:10160000F92F96E9BB279395F6958795779567957A
:10161000B795F111F8CFFAF4BB0F11F460FF1BC0BE
:101620006F5F7F4F8F4F9F4F16C0882311F096E951
:1016300011C0772321F09EE8872F762F05C06623FF
:1016400071F096E8862F70E060E02AF09A95660FB8
:10165000771F881FDAF7880F9695879597F9089571
:10166000990F0008550FAA0BE0E8FEEF16161706B3
:10167000E807F907C0F012161306E407F50798F01B
:10168000621B730B840B950B39F40A2661F0232B34
:10169000242B252B21F408950A2609F4A140A695B0
:1016A0008FEF811D811D08950E94670B0C94D80B4C
:1016B0000E94CA0B38F00E94D10B20F0952311F044
:1016C0000C94C10B0C94C70B11240C940C0C0E94AD
:1016D000E90B70F3959FC1F3950F50E0551F629F82
:1016E000F001729FBB27F00DB11D639FAA27F00D7B
:1016F000B11DAA1F649F6627B00DA11D661F829FA2
:101700002227B00DA11D621F739FB00DA11D621F86
:10171000839FA00D611D221F749F3327A00D611DA3
:10172000231F849F600D211D822F762F6A2F112485
:101730009F5750409AF0F1F088234AF0EE0FFF1FB8
:10174000BB1F661F771F881F91505040A9F79E3F0F
:10175000510580F00C94C10B0C940C0C5F3FE4F32A
:10176000983ED4F3869577956795B795F795E79565
:101770009F5FC1F7FE2B880F911D9695879597F96E
:10178000089597F99F6780E870E060E008959FEF03
:1017900080EC089500240A94161617061806090608
:1017A000089500240A9412161306140605060895D7
:1017B000092E0394000C11F4882352F0BB0F40F45F
:1017C000BF2B11F460FF04C06F5F7F4F8F4F9F4F9F
:1017D000089557FD9058440F551F59F05F3F71F021
:1017E0004795880F97FB991F61F09F3F79F0879588
:1017F0000895121613061406551FF2CF4695F1DF11
:1018000008C0161617061806991FF1CF86957105A0
:10181000610508940895E894BB2766277727CB01D4
:1018200097F908952F923F924F925F926F927F9215
:101830008F929F92AF92BF92CF92DF92EF92FF92E0
:101840000F931F93CF93DF93CDB7DEB7CA1BDB0B8C
:101850000FB6F894DEBF0FBECDBF09942A88398831
:1018600048885F846E847D848C849B84AA84B98438
:10187000C884DF80EE80FD800C811B81AA81B98144
:10188000CE0FD11D0FB6F894DEBF0FBECDBFED0158
:1018900008955058BB27AA270E94610C0C94D80BBE
:1018A0000E94CA0B38F00E94D10B20F039F49F3F00
:1018B00019F426F40C94C70B0EF4E095E7FB0C9496
:1018C000C10BE92F0E94E90B58F3BA17620773079F
:1018D0008407950720F079F4A6F50C940B0C0EF410
:1018E000E0950B2EBA2FA02D0B01B90190010C0130
:1018F000CA01A0011124FF27591B99F0593F50F448
:10190000503E68F11A16F040A22F232F342F44279F
:10191000585FF3CF469537952795A795F040539597
:10192000C9F77EF41F16BA0B620B730B840BBAF067
:101930009150A1F0FF0FBB1F661F771F881FC2F7D2
:101940000EC0BA0F621F731F841F48F487957795E6
:101950006795B795F7959E3F08F0B0CF9395880FA0
:1019600008F09927EE0F9795879508950E94CA0C65
:101970000C94D80B0E94D10B58F00E94CA0B40F077
:1019800029F45F3F29F00C94C10B51110C940C0CFD
:101990000C94C70B0E94E90B68F39923B1F355230C
:1019A00091F3951B550BBB27AA2762177307840772
:1019B00038F09F5F5F4F220F331F441FAA1FA9F308
:1019C00035D00E2E3AF0E0E832D091505040E695F6
:1019D000001CCAF72BD0FE2F29D0660F771F881F57
:1019E000BB1F261737074807AB07B0E809F0BB0B4A
:1019F000802DBF01FF2793585F4F3AF09E3F51055E
:101A000078F00C94C10B0C940C0C5F3FE4F3983EFF
:101A1000D4F3869577956795B795F7959F5FC9F746
:101A2000880F911D9695879597F90895E1E0660FC7
:101A3000771F881FBB1F621773078407BA0720F040
:101A4000621B730B840BBA0BEE1F88F7E0950895A9
:101A50000E94300B08F48FEF089597FB072E16F4C1
:101A6000009407D077FD09D00E94600D07FC05D0D7
:101A70003EF4909581959F4F0895709561957F4FA5
:101A80000895052E97FB1EF400940E94580D57FDF3
:101A900007D00E94740D07FC03D04EF40C94580D2F
:101AA00050954095309521953F4F4F4F5F4F08958A
:101AB00090958095709561957F4F8F4F9F4F0895BA
:101AC000AA1BBB1B51E107C0AA1FBB1FA617B70764
:101AD00010F0A61BB70B881F991F5A95A9F7809580
:101AE0009095BC01CD010895A1E21A2EAA1BBB1B43
:101AF000FD010DC0AA1FBB1FEE1FFF1FA217B307DA
:101B0000E407F50720F0A21BB30BE40BF50B661FEF
:101B1000771F881F991F1A9469F7609570958095B3
:101B200090959B01AC01BD01CF010895EE0FFF1F01
:101B30000590F491E02D09940F931F93CF93DF93B9
:101B40008230910510F482E090E0E091BA03F091C8
:101B5000BB0330E020E0B0E0A0E0309799F421151D
:101B6000310509F44AC0281B390B24303105D8F55A
:101B70008A819B816115710589F1FB0193838283C1
:101B8000FE0111C04081518102811381481759071C
:101B9000E0F04817590799F4109761F012960C93EA
:101BA000129713961C933296CF01DF91CF911F911C
:101BB0000F9108950093BA031093BB03F4CF21153E
:101BC000310551F04217530738F0A901DB019A01A2
:101BD000BD01DF01F801C1CFEF01F9CF9093BB0345
:101BE0008093BA03CDCFFE01E20FF31F819391934F
:101BF0002250310939832883D7CF2091B8033091FF
:101C0000B903232B41F42091020130910301309359
:101C1000B9032093B80320910001309101012115EF
:101C2000310541F42DB73EB74091040150910501B3
:101C3000241B350BE091B803F091B903E217F307C9
:101C4000A0F42E1B3F0B2817390778F0AC014E5F2C
:101C50005F4F2417350748F04E0F5F1F5093B903AD
:101C60004093B803819391939FCFF0E0E0E09CCF45
:101C7000CF93DF930097E9F0FC0132971382128231
:101C8000A091BA03B091BB03ED0130E020E01097C2
:101C9000A1F420813181820F931F2091B8033091EC
:101CA000B9032817390709F061C0F093B903E0932D
:101CB000B803DF91CF910895EA01CE17DF07E8F569
:101CC0004A815B819E0141155105B1F7E901FB8312
:101CD000EA8349915991C40FD51FEC17FD0761F4B0
:101CE000808191810296840F951FE90199838883F1
:101CF000828193819B838A83F0E0E0E012968D914C
:101D00009C9113970097B9F52D913C911197CD01B6
:101D10000296820F931F2091B8033091B9032817C0
:101D2000390739F6309751F51092BB031092BA0378
:101D3000B093B903A093B803BCCFD383C2834081CF
:101D40005181840F951FC817D90761F44E5F5F4F0B
:101D500088819981480F591F518340838A819B81D3
:101D6000938382832115310509F0B0CFF093BB0333
:101D7000E093BA039ECFFD01DC01C0CF1382128233
:101D8000D7CFB0E0A0E0E7ECFEE00C94140C8C019F
:101D9000009751F4CB010E949C0D8C01C801CDB776
:101DA000DEB7E0E10C94300CFC01E60FF71F9C015C
:101DB00022503109E217F30708F49DC0D901CD91F3
:101DC000DC911197C617D70798F0C530D10530F3CD
:101DD000CE0104978617970708F3C61BD70B2297E7
:101DE000C193D1936D937C93CF010E94380ED6CFCF
:101DF0005B01AC1ABD0A4C018C0E9D1EA091BA036A
:101E0000B091BB03512C412CF12CE12C109731F5F2
:101E10008091B8039091B9038815990509F05CC0C9
:101E20004616570608F058C08091000190910101B4
:101E3000009741F48DB79EB7409104015091050180
:101E4000841B950BE817F90708F055C0F093B90308
:101E5000E093B803F90171836083A0CF8D919C91C9
:101E6000119712966C90129713967C901397A81561
:101E7000B90559F56C0142E0C40ED11CCA14DB044B
:101E800020F1AC014A195B09DA011296159780F02E
:101E90006282738251834083D9016D937C93E114F4
:101EA000F10471F0D7011396FC93EE93129776CF5D
:101EB00022968C0F9D1FF90191838083F301EFCF50
:101EC000F093BB03E093BA0369CF4816590608F4B0
:101ED0002C017D01D3019ACFCB010E949C0D7C0186
:101EE000009749F0AE01B8010E947E0FC8010E9420
:101EF000380E870153CF10E000E050CFFB01DC012A
:101F000002C001900D9241505040D8F70895FB0156
:101F1000DC0101900D920020E1F70895F894FFCFC5
:101F20000000BC038000000000005002B001DD0191
:0C1F30009D020E02EC0100022C000A00D1
:00000001FF
