:100000000C94DF000C9407010C9407010C94070179
:100010000C9407010C9407010C9407010C94070140
:100020000C9407010C9407010C9407010C94070130
:100030000C9407010C9407010C9407010C94070120
:100040000C948D040C9407010C94FD040C94D704BB
:100050000C9407010C9407010C9407010C94070100
:100060000C9407010C94070100407A10F35A00A089
:10007000724E18090010A5D4E80000E87648170071
:1000800000E40B54020000CA9A3B000000E1F505B1
:10009000000080969800000040420F000000A086FB
:1000A00001000000102700000000E803000000002D
:1000B0006400000000000A000000000001000000D1
:1000C00000002C76D888DC674F0823DFC1DFAE59EB
:1000D000E1B1B796E5E3E453C63AE651997696E87E
:1000E000E6C28426EB898C9B62ED407C6FFCEFBC02
:1000F0009C9F40F2BAA56FA5F490055A2AF75C932D
:100100006B6CF9676DC11BFCE0E40D47FEF520E662
:10011000B500D0ED902E0300943577050080841E45
:10012000080000204E0A000000C80C333333330FA0
:10013000986E12831141EF8D2114893BE65516CF3D
:10014000FEE6DB18D1844B381BF77C1D901DA4BB49
:10015000E424203284725E228100C9F124ECA1E5FE
:100160003D2700000000240027002A0000000000B6
:1001700023002600290000000000250028002B0095
:10018000040404040404040402020202020203033D
:100190000303030301020408102040800102040845
:1001A00010200102040810200000000800020100D5
:1001B0000003040700000000000000007405112483
:1001C0001FBECFEFD8E0DEBFCDBF23E0ACE1B1E092
:1001D00001C01D92A83BB207E1F711E0A0E0B1E039
:1001E000E8E2FEE102C005900D92AC31B107D9F70B
:1001F00010E0CFEDD0E004C02197FE010E941A0D5F
:10020000CE3DD107C9F70E94AB050C94120F0C9498
:10021000000090E0FC01E855FE4F2491FC01EC56F3
:10022000FE4F3491FC01E058FE4FE491EE23C9F0FB
:10023000222339F0233001F1A8F4213019F12230C2
:1002400029F1F0E0EE0FFF1FEA58FE4FA591B4919F
:100250008FB7F894EC91611126C030953E233C9302
:100260008FBF08952730A9F02830C9F0243049F70E
:10027000809180008F7D03C0809180008F77809374
:100280008000DFCF84B58F7784BDDBCF84B58F7DD1
:10029000FBCF8091B0008F778093B000D2CF809158
:1002A000B0008F7DF9CF3E2BDACF2FB7F894609155
:1002B00013027091140280911502909116022FBFC3
:1002C0000895AF92BF92CF92DF92EF92FF920F9379
:1002D0001F93CF93DF936C017B018B01040F151FDC
:1002E000EB015E01AE18BF08C017D10759F0699144
:1002F000D601ED91FC910190F081E02DC6010995A8
:10030000892B79F7C501DF91CF911F910F91FF9054
:10031000EF90DF90CF90BF90AF900895FC01538D88
:10032000448D252F30E0842F90E0821B930B5417CF
:1003300010F0CF96089501970895FC01918D828D5C
:10034000981761F0A28DAE0FBF2FB11D5D968C91F5
:10035000928D9F5F9F73928F90E008958FEF9FEF34
:100360000895FC01918D828D981731F0828DE80FF0
:10037000F11D858D90E008958FEF9FEF0895FC01AA
:10038000918D228D892F90E0805C9F4F821B910977
:100390008F739927089587E192E00E94BF0121E0C1
:1003A000892B09F420E0822F089580E090E0892BCA
:1003B00029F00E94CB0181110C9400000895FC01EA
:1003C000A48DA80FB92FB11DA35ABF4F2C91848DB6
:1003D00090E001968F739927848FA689B7892C9313
:1003E000A089B1898C91837080648C93938D848D66
:1003F000981306C00288F389E02D80818F7D808369
:100400000895EF92FF920F931F93CF93DF93EC0128
:1004100081E0888F9B8D8C8D98131AC0E889F989AB
:10042000808185FF15C09FB7F894EE89FF896083AE
:10043000E889F98980818370806480839FBF81E02F
:1004400090E0DF91CF911F910F91FF90EF90089571
:10045000F62E0B8D10E00F5F1F4F0F731127E02E4C
:100460008C8D8E110CC00FB607FCFACFE889F98984
:10047000808185FFF5CFCE010E94DF01F1CFEB8DAA
:10048000EC0FFD2FF11DE35AFF4FF0829FB7F89458
:100490000B8FEA89FB8980818062CFCFCF93DF9376
:1004A000EC01888D8823B9F0AA89BB89E889F9898C
:1004B0008C9185FD03C0808186FD0DC00FB607FCC1
:1004C000F7CF8C9185FFF2CF808185FFEDCFCE01F4
:1004D0000E94DF01E9CFDF91CF9108950F931F9321
:1004E000CF93DF93EC0188819981009759F02A819D
:1004F0003B812617370730F081E0DF91CF911F91C4
:100500000F9108958B016F5F7F4F0E94450E0097FA
:1005100059F0998388831B830A832C813D81232B87
:1005200059F7FC011082E8CF80E0E7CFEF92FF920D
:100530000F931F93CF93DF936115710541F480E012
:10054000DF91CF911F910F91FF90EF90089541158A
:100550005105B1F07B01EC010C811D81040F151FC9
:10056000B8010E946E02882351F3288139818C8161
:100570009D81B701820F931F0E940B0F1D830C8377
:1005800081E0DECFCF93DF93EC01888199810097E2
:1005900011F00E94BC0D198218821D821C821B82E0
:1005A0001A82DF91CF910895CF93DF93EC01FB0185
:1005B00001900020E9F73197AF01461B570B0E94CD
:1005C0009602811103C0CE010E94C202CE01DF91CA
:1005D000CF910895EF92FF920F931F93CF93DF93E4
:1005E000EC017B018A01BA010E946E0281110BC0ED
:1005F000CE010E94C202CE01DF91CF911F910F91D7
:10060000FF90EF9008951D830C83B7018881998135
:100610000E940B0FF0CFEF92FF920F931F93CF9397
:10062000DF93CDB7DEB7E3970FB6F894DEBF0FBE0A
:10063000CDBF7C01CB01BA01F70111821082138278
:100640001282158214828E010F5F1F4F22E044E058
:100650000E94EB070097C9F0FC0101900020E9F728
:100660003197AF01481B590BBC01C7010E94EA0238
:10067000E3960FB6F894DEBF0FBECDBFDF91CF91EA
:100680001F910F91FF90EF900895C7010E94C20241
:10069000EFCFFC0180819181009711F00C94BC0D8B
:1006A00008952F923F924F925F926F927F928F9216
:1006B0009F92AF92BF92CF92DF92EF92FF920F93F1
:1006C0001F93CF93DF93CDB7DEB7E9970FB6F894BA
:1006D000DEBF0FBECDBF0E9455014B015C01C12C96
:1006E000D12C760110E000E094E1292E312C412C30
:1006F000512C2CE0722E60910C0270910D02601B47
:10070000710B072E000C880B990B6C5E7F4F8F4F7F
:100710009F4FA20191010E94C50C769EF001779E29
:10072000F00D1124E45EFE4F20813181428153811E
:10073000C701B6010E94CE0B6B017C010F5F1F4FFA
:1007400003301105C1F620E030E040E450E40E949F
:100750003A0C2B013C01C12CD12C760110E000E0B9
:100760008CE0382E60910C0270910D02601B710BB1
:10077000072E000C880B990B6C5E7F4F8F4F9F4F9D
:1007800024E130E040E050E00E94C50C369EF001CC
:10079000379EF00D1124E45EFE4F248135814681A1
:1007A0005781C701B6010E94CE0B6B017C010F5F20
:1007B0001F4F0A301105B1F620E030E040E251E46D
:1007C0000E943A0CAB01BC01CE018E960E940B0335
:1007D000B301A201CE0188960E940B031BA21AA2AC
:1007E0001DA21CA21FA21EA22AE08E010F5F1F4F96
:1007F000A801C501B4010E940908F8010190002078
:10080000E9F73197AF01401B510BB801CE01829639
:100810000E94EA021A8219821C821B821E821D8299
:100820006AA17BA16115710529F04EA15FA1C801E4
:100830000E94EA0268E171E0C8010E94D4027C01D2
:100840004CA55DA568A579A50E949602811103C0FB
:10085000C7010E94C20268E171E0C7010E94D40290
:100860007C014AA95BA96EA57FA50E949602811111
:1008700003C0C7010E94C2026AE171E0C7010E9481
:10088000D4021DAA1CAA1FAA1EAA19AE18AE7E0168
:1008900024E3E20EF11C8E159F0559F0FC016081E6
:1008A00071816115710529F044815581C7010E944C
:1008B000EA02C8010E944903CE0182960E944903C0
:1008C000CE0188960E944903CE018E960E9449036C
:1008D00048AD59AD6CA97DA987E192E00E94610104
:1008E000C7010E94490381E0E9960FB6F894DEBF84
:1008F0000FBECDBFDF91CF911F910F91FF90EF9071
:10090000DF90CF90BF90AF909F908F907F906F902F
:100910005F904F903F902F9008951F920F920FB6C7
:100920000F9211242F933F938F939F93AF93BF9375
:100930008091130290911402A0911502B0911602B9
:100940003091120223E0230F2D3758F50196A11D97
:10095000B11D209312028093130290931402A0936E
:100960001502B093160280910E0290910F02A09191
:100970001002B09111020196A11DB11D80930E02CB
:1009800090930F02A0931002B0931102BF91AF9108
:100990009F918F913F912F910F900FBE0F901F90BD
:1009A000189526E8230F0296A11DB11DD2CF1F92E4
:1009B0000F920FB60F9211242F933F934F935F9393
:1009C0006F937F938F939F93AF93BF93EF93FF9317
:1009D00087E192E00E94DF01FF91EF91BF91AF911B
:1009E0009F918F917F916F915F914F913F912F9147
:1009F0000F900FBE0F901F9018951F920F920FB679
:100A00000F9211242F938F939F93EF93FF93E09175
:100A10002702F09128028081E0912D02F0912E02B0
:100A200082FD1BC09081809130028F5F8F73209177
:100A30003102821741F0E0913002F0E0E95EFD4FB3
:100A4000958F80933002FF91EF919F918F912F911D
:100A50000F900FBE0F901F9018958081F4CFCF920A
:100A6000DF92EF92FF920F931F93E82FF92F05C0AB
:100A7000015011092109310961F1908196239417E0
:100A8000B9F305C0015011092109310911F1908113
:100A900096239413F7CFC12CD12CE12CF12C0AC052
:100AA0008FEFC81AD80AE80AF80A0C151D052E059A
:100AB0003F0579F080818623841791F36C2D7D2D7D
:100AC0008E2D9F2D1F910F91FF90EF90DF90CF9073
:100AD000089560E070E080E090E01F910F91FF903A
:100AE000EF90DF90CF900895E7E1F2E01382128259
:100AF00088EE93E0A0E0B0E084839583A683B7837B
:100B00008AE091E09183808385EC90E095878487EB
:100B100084EC90E09787868780EC90E0918B808BC7
:100B200081EC90E0938B828B82EC90E0958B848BB0
:100B300086EC90E0978B868B118E128E138E148E1E
:100B400080E091E0E4EBF2E0DF019C011D92215096
:100B50003040E1F70895789484B5826084BD84B50F
:100B6000816084BD85B5826085BD85B5816085BDA8
:100B700080916E00816080936E0010928100809160
:100B800081008260809381008091810081608093E8
:100B90008100809180008160809380008091B1000D
:100BA00084608093B1008091B00081608093B00038
:100BB00080917A00846080937A0080917A008260CC
:100BC00080937A0080917A00816080937A0080918E
:100BD0007A00806880937A001092C100E091270229
:100BE000F091280282E08083E0912302F0912402B8
:100BF0001082E0912502F091260280E1808310921C
:100C00002F02E0912B02F0912C0286E08083E0918C
:100C10002902F0912A02808180618083E09129027B
:100C2000F0912A02808188608083E0912902F0910E
:100C30002A02808180688083E0912902F0912A0253
:100C400080818F7D8083EBE9F1E02491E7E8F1E09A
:100C50008491882399F090E0880F991FFC01EE5948
:100C6000FE4FA591B491FC01EA58FE4F85919491F5
:100C70008FB7F894EC91E22BEC938FBFEAE9F1E0A7
:100C80002491F6E82F2EF1E03F2EF1018491882384
:100C9000C1F090E0880F991FFC01EE59FE4FA5911D
:100CA000B491FC01EA58FE4FC591D4913FB7F89436
:100CB0009C91822F809598239C9398818923888387
:100CC0003FBF10920D0210920C02ECE1F1E080E0C7
:100CD00090E0A0E2B1E480839183A283B383108685
:100CE0001186128613863C9622E0EC30F20799F7C3
:100CF0000E945501E4EBF2E020813181232B09F4BD
:100D000024C1709633E0E43BF307B0F34FE0842E48
:100D1000912C53E2C52ED12C64E1E62EF12C70E02B
:100D2000A72E70E0B72E60E087E00E940901C401A1
:100D30000197F1F761E087E00E940901C601019780
:100D4000F1F760E087E00E940901EAE9F1E06491CF
:100D5000F1018491E82FF0E0EE0FFF1FE459FE4F00
:100D60008591949100E315E720E030E0462F0E9442
:100D70002F05611571058105910529F06F5F7F4F82
:100D80008F4F9F4F9F7095958795779567950E9498
:100D9000790A21E233E94CE05DE30E94D80A2B0195
:100DA0003C0120E030E0A9010E94720A87FD6EC07C
:100DB00020E030E048E453E4C301B2010E94AC0CEF
:100DC00018160CF463C000910C0210910D02FCE0A7
:100DD000F09FE001F19FD00D1124C45EDE4F4882E8
:100DE00059826A827B820E9455012B013C01488610
:100DF00059866A867B86C8010F96B7010E94B10C9E
:100E00002CE0289F8001299F100D1124045E1E4FA5
:100E1000F80180859185A285B385A3019201281BE5
:100E2000390B4A0B5B0BCA01B9010E94770A2B01EF
:100E30003C0120E030E0A9010E94AC0C18160CF037
:100E40009FC0F8012081318142815381688179817D
:100E50008A819B810E94CD0BA30192010E943A0CD2
:100E600020E030E048EC52E40E94D80A6C837D8395
:100E70008E839F8380910C0290910D020196B701A1
:100E80000E94B10C90930D0280930C02C4EBD2E04F
:100E900088819981892BB9F10E9455012B013C0170
:100EA0008C819D81AE81BF81B301A201481B590B8A
:100EB0006A0B7B0B88859985AA85BB8548175907DE
:100EC0006A077B0700F1E881F9818A819B81099596
:100ED000882351F081E04C855D856E857F85452BAB
:100EE000462B472B09F480E0482F50E070E060E08B
:100EF0004C875D876E877F87882309F446C04C82C4
:100F00005D826E827F826096F3E0C43BDF0708F467
:100F1000BFCF0E945501C4EBD2E088819981892B13
:100F200009F044C0609623E0C43BD207B0F30E94AE
:100F30005501A114B10409F4F6CE0E94CB01882317
:100F400009F4F1CE0E940000EECE21E533E03183BA
:100F5000208313821282648375838683978382E35E
:100F600090E0A0E0B0E080879187A287B38781E01E
:100F700090E0A0E0B0E084879587A687B787C6CECB
:100F80001C821D821E821F8275CF198218821B82CD
:100F90001A821C821D821E821F82188619861A865A
:100FA0001B861C861D861E861F86ADCF0E9455019E
:100FB0000C811D812E813F81601B710B820B930B75
:100FC000088519852A853B85601771078207930775
:100FD00008F4A8CFACCFEF920F931F93CF93DF937A
:100FE000E80134E047FD34E1042E000C550B57FFB7
:100FF00003C0519541955109E32E022F242FAE01D4
:101000000E942B08CE01DF91CF911F910F91EF909D
:101010000895BB27FA01A62F621771058105910576
:10102000330B30FB66F0AA27660F771F881F991FC6
:10103000AA1FA21710F0A21B63953850A9F7A05D54
:10104000AA3308F0A95DA19336F7B111B1931082CC
:10105000CA010C94620AA9E0B0E0E1E3F8E00C9464
:101060009C0B6A01F22EB02E102FFBE3AF2EA016C0
:1010700008F41BE31F5F012F27E0AE014F5F5F4FB6
:101080000E948A09BC018981982F9970913009F4D6
:101090003FC09BE2E1FC04C09E2D9170E0FC3AC091
:1010A0005E2D5071E82FE87083FF46C084E09111F7
:1010B00001C083E0EF2DE81B8F1508F0E0E0D601BA
:1010C0008E2F20E2552351F1992329F0D6019C93CC
:1010D000C60101966C0196012D5F3F4FE2FE24C0D0
:1010E0008EE4D6018C9391E411969C9311971296FD
:1010F0008C93D9018E2F90E281111BC0E20FF32F48
:10110000F11D10828EEF9FEF2996ECE00C94B80B46
:101110009DE2C6CF90E2C4CF2D9381508111FCCFC8
:10112000CE0ED11CE0E0D0CF8EE6D6018C9391E6B6
:10113000DBCF9D938150E0CF482F447082FF3DC0AC
:1011400084E0911101C083E08F1510F4EF2DE81BAE
:10115000D6018E2F20E2552309F1992329F0D601DB
:101160009C93C60101966C0196012D5F3F4FE2FEF4
:101170001BC089E4D6018C938EE411968C93119751
:1011800086E412968C93D9018E2F90E2882309F47D
:10119000B5CF9D938150FACF2D9381508111FCCF13
:1011A000CE0ED11CE0E0D9CF89E6D6018C938EE635
:1011B00011968C93119786E6E4CF9B0177FF02C0CE
:1011C00030E020E0A1E0B0E0911102C0B0E0A0E08A
:1011D000F9013196AE0FBF1F8B2C912CBB2009F467
:1011E00061C05401EFEFAE1ABE0AAA0DBB1DFA167C
:1011F0001B0619F014F04F2D4A1B511188C0E3FC57
:1012000059C07601A42FB0E2A1114FC0C40ED11C69
:10121000992309F45BC040E0D6011196F601908352
:101220006D01552309F448C0012F060F9A81582FEC
:10123000507184FF03C0913309F4015010160CF073
:1012400047C0093008F008E0EEE2FE2E5B01A01A6C
:10125000B10885019194819491082F3F320729F4B8
:10126000D601FC92F60131966F016217730794F173
:10127000021713077CF5DB01A21BB30BAA24A3946E
:10128000B12CAC0EBD1EAA0DBB1D11968C91215028
:101290003109D601119628153905F4F0F60180833D
:1012A0006D01DBCFB12CA12CA0CFF701B1937F0151
:1012B000A150AACF9111B0CFD601942F50E302C014
:1012C0005D9391509111FCCFC40ED11C40E0ACCF86
:1012D00001E0BACF80E3DBCF6217730731F49633B6
:1012E00088F4953311F4552369F0F6018083FD01EC
:1012F000842F90E2811108C0A40FB11D1C9290E0D0
:1013000080E002CF81E3F1CF91938150F3CF91112F
:1013100083CF8ACF283008F027E03327DA01990FEE
:10132000311D87FD916000966105710539F43260C9
:101330002E5F3D9330E32A95E1F708959F3F30F00B
:1013400080387105610509F03C5F3C5F3D93913049
:1013500008F08068911DDF93CF931F930F93FF9246
:10136000EF92192F987F9695E92F96959695E90F0C
:10137000FF27EE53FF4F99273327EE24FF24A701C1
:10138000E70105900894079428F4360FE71EF81E2D
:10139000491F511D660F771F881F991F0694A1F7DB
:1013A0000590079428F4E70EF81E491F561FC11D2B
:1013B000770F881F991F661F0694A1F70590079461
:1013C00028F4F80E491F561FC71FD11D880F991FFB
:1013D000661F771F0694A1F70590079420F4490F24
:1013E000561FC71FD81F990F661F771F881F0694A7
:1013F000A9F784911095177041F0D695C795579528
:101400004795F794E7941A95C1F7E8E6F0E06894F9
:101410001590159135916591959105907FE27395A1
:10142000E118F10A430B560BC90BD009C0F7E10CC8
:10143000F11E431F561FC91FD01D7EF4703311F4D7
:101440008A95E6CFE894015030F0080F0AF400279F
:10145000021708F4202F2395022F7A3328F079E31E
:101460007D932A95E9F710C07D932A9589F6069415
:1014700097956795379517951794E118F10A430BDF
:10148000560BC90BD00998F023957E9173957A334A
:1014900008F070E37C932013B8F77E9170617D9320
:1014A00030F0839571E37D9370E32A95E1F7112481
:1014B000EF90FF900F911F91CF91DF91992787FDBA
:1014C00090950895DC01FC01672F71917723E1F776
:1014D000329704C07C916D9370836291AE17BF0701
:1014E000C8F308950E94B40A08F481E00895E894CE
:1014F00009C097FB3EF490958095709561957F4F5C
:101500008F4F9F4F9923A9F0F92F96E9BB27939509
:10151000F695879577956795B795F111F8CFFAF419
:10152000BB0F11F460FF1BC06F5F7F4F8F4F9F4F4A
:1015300016C0882311F096E911C0772321F09EE8A8
:10154000872F762F05C0662371F096E8862F70E00E
:1015500060E02AF09A95660F771F881FDAF7880FE8
:101560009695879597F90895990F0008550FAA0B3E
:10157000E0E8FEEF16161706E807F907C0F01216A6
:101580001306E407F50798F0621B730B840B950BA9
:1015900039F40A2661F0232B242B252B21F40895FE
:1015A0000A2609F4A140A6958FEF811D811D08959B
:1015B0000E94EB0A0C945C0B0E944E0B38F00E94C8
:1015C000550B20F0952311F00C94450B0C944B0B0C
:1015D00011240C94900B0E946D0B70F3959FC1F336
:1015E000950F50E0551F629FF001729FBB27F00DD1
:1015F000B11D639FAA27F00DB11DAA1F649F662726
:10160000B00DA11D661F829F2227B00DA11D621F74
:10161000739FB00DA11D621F839FA00D611D221F2E
:10162000749F3327A00D611D231F849F600D211D12
:10163000822F762F6A2F11249F5750409AF0F1F095
:1016400088234AF0EE0FFF1FBB1F661F771F881FFE
:1016500091505040A9F79E3F510580F00C94450BE6
:101660000C94900B5F3FE4F3983ED4F38695779506
:101670006795B795F795E7959F5FC1F7FE2B880FA4
:10168000911D9695879597F9089597F99F6780E83A
:1016900070E060E008959FEF80EC089500240A94C4
:1016A0001616170618060906089500240A9412163D
:1016B0001306140605060895092E0394000C11F470
:1016C000882352F0BB0F40F4BF2B11F460FF04C01D
:1016D0006F5F7F4F8F4F9F4F089557FD9058440F76
:1016E000551F59F05F3F71F04795880F97FB991F81
:1016F00061F09F3F79F0879508951216130614063E
:10170000551FF2CF4695F1DF08C0161617061806CA
:10171000991FF1CF86957105610508940895E894A5
:10172000BB2766277727CB0197F908952F923F9221
:101730004F925F926F927F928F929F92AF92BF92E1
:10174000CF92DF92EF92FF920F931F93CF93DF938D
:10175000CDB7DEB7CA1BDB0B0FB6F894DEBF0FBEEA
:10176000CDBF09942A88398848885F846E847D8437
:101770008C849B84AA84B984C884DF80EE80FD8039
:101780000C811B81AA81B981CE0FD11D0FB6F894AF
:10179000DEBF0FBECDBFED0108955058BB27AA276D
:1017A0000E94E50B0C945C0B0E944E0B38F00E94DB
:1017B000550B20F039F49F3F19F426F40C944B0B91
:1017C0000EF4E095E7FB0C94450BE92F0E946D0B9E
:1017D00058F3BA17620773078407950720F079F466
:1017E000A6F50C948F0B0EF4E0950B2EBA2FA02DBE
:1017F0000B01B90190010C01CA01A0011124FF27BE
:10180000591B99F0593F50F4503E68F11A16F040B8
:10181000A22F232F342F4427585FF3CF46953795B7
:101820002795A795F0405395C9F77EF41F16BA0B7C
:10183000620B730B840BBAF09150A1F0FF0FBB1F2A
:10184000661F771F881FC2F70EC0BA0F621F731F73
:10185000841F48F4879577956795B795F7959E3FD0
:1018600008F0B0CF9395880F08F09927EE0F979561
:10187000879508950E944E0C0C945C0B0E94550BAA
:1018800058F00E944E0B40F029F45F3F29F00C9471
:10189000450B51110C94900B0C944B0B0E946D0B4B
:1018A00068F39923B1F3552391F3951B550BBB278F
:1018B000AA2762177307840738F09F5F5F4F220FD4
:1018C000331F441FAA1FA9F335D00E2E3AF0E0E8CB
:1018D00032D091505040E695001CCAF72BD0FE2F15
:1018E00029D0660F771F881FBB1F261737074807A9
:1018F000AB07B0E809F0BB0B802DBF01FF27935861
:101900005F4F3AF09E3F510578F00C94450B0C94D4
:10191000900B5F3FE4F3983ED4F3869577956795F7
:10192000B795F7959F5FC9F7880F911D9695879595
:1019300097F90895E1E0660F771F881FBB1F6217B4
:1019400073078407BA0720F0621B730B840BBA0B72
:10195000EE1F88F7E09508950E94B40A08F48FEF0F
:10196000089597FB072E16F4009407D077FD09D051
:101970000E94E40C07FC05D03EF4909581959F4FA2
:101980000895709561957F4F0895052E97FB1EF47D
:1019900000940E94DC0C57FD07D00E94F80C07FC55
:1019A00003D04EF40C94DC0C509540953095219565
:1019B0003F4F4F4F5F4F089590958095709561957B
:1019C0007F4F8F4F9F4F0895AA1BBB1B51E107C04C
:1019D000AA1FBB1FA617B70710F0A61BB70B881FBF
:1019E000991F5A95A9F780959095BC01CD0108954E
:1019F000A1E21A2EAA1BBB1BFD010DC0AA1FBB1F13
:101A0000EE1FFF1FA217B307E407F50720F0A21B84
:101A1000B30BE40BF50B661F771F881F991F1A94F1
:101A200069F760957095809590959B01AC01BD011B
:101A3000CF010895EE0FFF1F0590F491E02D09945A
:101A40000F931F93CF93DF938230910510F482E0C0
:101A500090E0E091B603F091B70330E020E0B0E011
:101A6000A0E0309799F42115310509F44AC0281BEC
:101A7000390B24303105D8F58A819B8161157105B8
:101A800089F1FB0193838283FE0111C04081518162
:101A90000281138148175907E0F04817590799F454
:101AA000109761F012960C93129713961C9332962E
:101AB000CF01DF91CF911F910F9108950093B6034D
:101AC0001093B703F4CF2115310551F04217530796
:101AD00038F0A901DB019A01BD01DF01F801C1CF96
:101AE000EF01F9CF9093B7038093B603CDCFFE01FA
:101AF000E20FF31F81939193225031093983288398
:101B0000D7CF2091B4033091B503232B41F420911A
:101B10000201309103013093B5032093B403209167
:101B20000001309101012115310541F42DB73EB777
:101B30004091040150910501241B350BE091B40341
:101B4000F091B503E217F307A0F42E1B3F0B281703
:101B5000390778F0AC014E5F5F4F2417350748F026
:101B60004E0F5F1F5093B5034093B403819391933D
:101B70009FCFF0E0E0E09CCFCF93DF930097E9F0B8
:101B8000FC01329713821282A091B603B091B70381
:101B9000ED0130E020E01097A1F420813181820F27
:101BA000931F2091B4033091B5032817390709F02A
:101BB00061C0F093B503E093B403DF91CF91089532
:101BC000EA01CE17DF07E8F54A815B819E014115E6
:101BD0005105B1F7E901FB83EA8349915991C40F9B
:101BE000D51FEC17FD0761F4808191810296840F67
:101BF000951FE90199838883828193819B838A83DE
:101C0000F0E0E0E012968D919C9113970097B9F562
:101C10002D913C911197CD010296820F931F209137
:101C2000B4033091B5032817390739F6309751F5C9
:101C30001092B7031092B603B093B503A093B40308
:101C4000BCCFD383C28340815181840F951FC817B5
:101C5000D90761F44E5F5F4F88819981480F591F02
:101C6000518340838A819B8193838283211531052F
:101C700009F0B0CFF093B703E093B6039ECFFD0118
:101C8000DC01C0CF13821282D7CFB0E0A0E0EBE43A
:101C9000FEE00C94980B8C01009751F4CB010E944C
:101CA000200D8C01C801CDB7DEB7E0E10C94B40B78
:101CB000FC01E60FF71F9C0122503109E217F307E0
:101CC00008F49DC0D901CD91DC911197C617D707B3
:101CD00098F0C530D10530F3CE01049786179707E9
:101CE00008F3C61BD70B2297C193D1936D937C93B6
:101CF000CF010E94BC0DD6CF5B01AC1ABD0A4C01CE
:101D00008C0E9D1EA091B603B091B703512C412CAF
:101D1000F12CE12C109731F58091B4039091B5032B
:101D20008815990509F05CC04616570608F058C09A
:101D30008091000190910101009741F48DB79EB709
:101D40004091040150910501841B950BE817F90798
:101D500008F055C0F093B503E093B403F901718323
:101D60006083A0CF8D919C91119712966C901297E1
:101D700013967C901397A815B90559F56C0142E0AC
:101D8000C40ED11CCA14DB0420F1AC014A195B0952
:101D9000DA011296159780F0628273825183408334
:101DA000D9016D937C93E114F10471F0D70113967E
:101DB000FC93EE93129776CF22968C0F9D1FF9011C
:101DC00091838083F301EFCFF093B703E093B603E1
:101DD00069CF4816590608F42C017D01D3019ACF2A
:101DE000CB010E94200D7C01009749F0AE01B801A3
:101DF0000E94020FC8010E94BC0D870153CF10E062
:101E000000E050CFFB01DC0102C001900D92415077
:101E10005040D8F70895FB01DC0101900D9200209D
:081E2000E1F70895F894FFCFEB
:101E28000000B803800000000000010261018E017B
:0C1E38004E02BF019D01B1012C000A0008
:00000001FF
